{
  "address": "0x7133700B4a1EFFB5E49e8722D65390708Bb67D70",
  "abi": [
    {
      "inputs": [
        {
          "internalType": "address",
          "name": "token_addr",
          "type": "address"
        }
      ],
      "stateMutability": "nonpayable",
      "type": "constructor"
    },
    {
      "anonymous": false,
      "inputs": [
        {
          "indexed": true,
          "internalType": "address",
          "name": "swapper",
          "type": "address"
        },
        {
          "indexed": false,
          "internalType": "uint256",
          "name": "tokensBought",
          "type": "uint256"
        },
        {
          "indexed": false,
          "internalType": "uint256",
          "name": "ethSold",
          "type": "uint256"
        }
      ],
      "name": "EthToTokenSwap",
      "type": "event"
    },
    {
      "anonymous": false,
      "inputs": [
        {
          "indexed": true,
          "internalType": "address",
          "name": "provider",
          "type": "address"
        },
        {
          "indexed": false,
          "internalType": "uint256",
          "name": "ethAmount",
          "type": "uint256"
        },
        {
          "indexed": false,
          "internalType": "uint256",
          "name": "tokenAmount",
          "type": "uint256"
        },
        {
          "indexed": false,
          "internalType": "uint256",
          "name": "liquidityMinted",
          "type": "uint256"
        }
      ],
      "name": "LiquidityProvided",
      "type": "event"
    },
    {
      "anonymous": false,
      "inputs": [
        {
          "indexed": true,
          "internalType": "address",
          "name": "provider",
          "type": "address"
        },
        {
          "indexed": false,
          "internalType": "uint256",
          "name": "ethAmount",
          "type": "uint256"
        },
        {
          "indexed": false,
          "internalType": "uint256",
          "name": "tokenAmount",
          "type": "uint256"
        },
        {
          "indexed": false,
          "internalType": "uint256",
          "name": "liquidityBurned",
          "type": "uint256"
        }
      ],
      "name": "LiquidityRemoved",
      "type": "event"
    },
    {
      "anonymous": false,
      "inputs": [
        {
          "indexed": true,
          "internalType": "address",
          "name": "swapper",
          "type": "address"
        },
        {
          "indexed": false,
          "internalType": "uint256",
          "name": "tokensIn",
          "type": "uint256"
        },
        {
          "indexed": false,
          "internalType": "uint256",
          "name": "ethOut",
          "type": "uint256"
        }
      ],
      "name": "TokenToEthSwap",
      "type": "event"
    },
    {
      "inputs": [],
      "name": "deposit",
      "outputs": [
        {
          "internalType": "uint256",
          "name": "",
          "type": "uint256"
        }
      ],
      "stateMutability": "payable",
      "type": "function"
    },
    {
      "inputs": [],
      "name": "ethToToken",
      "outputs": [
        {
          "internalType": "uint256",
          "name": "",
          "type": "uint256"
        }
      ],
      "stateMutability": "payable",
      "type": "function"
    },
    {
      "inputs": [
        {
          "internalType": "address",
          "name": "user",
          "type": "address"
        }
      ],
      "name": "getLiquidity",
      "outputs": [
        {
          "internalType": "uint256",
          "name": "",
          "type": "uint256"
        }
      ],
      "stateMutability": "view",
      "type": "function"
    },
    {
      "inputs": [
        {
          "internalType": "uint256",
          "name": "tokens",
          "type": "uint256"
        }
      ],
      "name": "init",
      "outputs": [
        {
          "internalType": "uint256",
          "name": "",
          "type": "uint256"
        }
      ],
      "stateMutability": "payable",
      "type": "function"
    },
    {
      "inputs": [
        {
          "internalType": "address",
          "name": "",
          "type": "address"
        }
      ],
      "name": "liquidity",
      "outputs": [
        {
          "internalType": "uint256",
          "name": "",
          "type": "uint256"
        }
      ],
      "stateMutability": "view",
      "type": "function"
    },
    {
      "inputs": [
        {
          "internalType": "uint256",
          "name": "inputAmount",
          "type": "uint256"
        },
        {
          "internalType": "uint256",
          "name": "inputReserve",
          "type": "uint256"
        },
        {
          "internalType": "uint256",
          "name": "outputReserve",
          "type": "uint256"
        }
      ],
      "name": "price",
      "outputs": [
        {
          "internalType": "uint256",
          "name": "",
          "type": "uint256"
        }
      ],
      "stateMutability": "pure",
      "type": "function"
    },
    {
      "inputs": [],
      "name": "token",
      "outputs": [
        {
          "internalType": "contract Balloons",
          "name": "",
          "type": "address"
        }
      ],
      "stateMutability": "view",
      "type": "function"
    },
    {
      "inputs": [
        {
          "internalType": "uint256",
          "name": "tokensSold",
          "type": "uint256"
        }
      ],
      "name": "tokenToEth",
      "outputs": [
        {
          "internalType": "uint256",
          "name": "",
          "type": "uint256"
        }
      ],
      "stateMutability": "nonpayable",
      "type": "function"
    },
    {
      "inputs": [],
      "name": "totalLiquidity",
      "outputs": [
        {
          "internalType": "uint256",
          "name": "",
          "type": "uint256"
        }
      ],
      "stateMutability": "view",
      "type": "function"
    },
    {
      "inputs": [
        {
          "internalType": "uint256",
          "name": "amount",
          "type": "uint256"
        }
      ],
      "name": "withdraw",
      "outputs": [
        {
          "internalType": "uint256",
          "name": "",
          "type": "uint256"
        },
        {
          "internalType": "uint256",
          "name": "",
          "type": "uint256"
        }
      ],
      "stateMutability": "nonpayable",
      "type": "function"
    }
  ],
  "transactionHash": "0x0f8b50ce6d73cffbda7f7839d686a33a03eea8eefd735f952b45c25f89fb2a88",
  "args": [
    "0x0ce03374e7Ccba4Adf34E6997bF6c0f4AE6ad7D3"
  ],
  "numDeployments": 1,
  "solcInputHash": "1f3c54ae05e15a73b84b68a51dcf9e52",
  "bytecode": "0x608060405234801561001057600080fd5b50604051610e56380380610e5683398101604081905261002f91610054565b600080546001600160a01b0319166001600160a01b0392909216919091179055610084565b60006020828403121561006657600080fd5b81516001600160a01b038116811461007d57600080fd5b9392505050565b610dc3806100936000396000f3fe6080604052600436106100915760003560e01c8063a747b93b11610059578063a747b93b1461013c578063b7b0422d14610172578063b8c876b114610185578063d0e30db0146101b2578063fc0c546a146101ba57600080fd5b806315770f92146100965780632071a9f4146100bf5780632e1a7d4d146100df57806370b2a30f14610114578063789770f414610134575b600080fd5b3480156100a257600080fd5b506100ac60015481565b6040519081526020015b60405180910390f35b3480156100cb57600080fd5b506100ac6100da366004610c2b565b6101f2565b3480156100eb57600080fd5b506100ff6100fa366004610c57565b61029a565b604080519283526020830191909152016100b6565b34801561012057600080fd5b506100ac61012f366004610c57565b610513565b6100ac6106e3565b34801561014857600080fd5b506100ac610157366004610c70565b6001600160a01b031660009081526002602052604090205490565b6100ac610180366004610c57565b6108b0565b34801561019157600080fd5b506100ac6101a0366004610c70565b60026020526000908152604090205481565b6100ac610a18565b3480156101c657600080fd5b506000546101da906001600160a01b031681565b6040516001600160a01b0390911681526020016100b6565b600080831180156102035750600082115b61024c5760405162461bcd60e51b81526020600482015260156024820152744445583a20696e76616c696420726573657276657360581b60448201526064015b60405180910390fd5b600061025a856103e5610cb6565b905060006102688483610cb6565b9050600082610279876103e8610cb6565b6102839190610cd3565b905061028f8183610ce6565b979650505050505050565b3360009081526002602052604081205481908311156102fb5760405162461bcd60e51b815260206004820152601960248201527f4445583a206e6f7420656e6f756768206c6971756964697479000000000000006044820152606401610243565b60015460009061030b4786610cb6565b6103159190610ce6565b600154600080546040516370a0823160e01b815230600482015293945090926001600160a01b03909116906370a0823190602401602060405180830381865afa158015610366573d6000803e3d6000fd5b505050506040513d601f19601f8201168201806040525081019061038a9190610d08565b6103949087610cb6565b61039e9190610ce6565b336000908152600260205260408120805492935087929091906103c2908490610d21565b9250508190555084600160008282546103db9190610d21565b9091555050604051339083156108fc029084906000818181858888f1935050505015801561040d573d6000803e3d6000fd5b5060005460405163a9059cbb60e01b8152336004820152602481018390526001600160a01b039091169063a9059cbb906044016020604051808303816000875af115801561045f573d6000803e3d6000fd5b505050506040513d601f19601f820116820180604052508101906104839190610d34565b6104c65760405162461bcd60e51b81526020600482015260146024820152731111560e881d1c985b9cd9995c8819985a5b195960621b6044820152606401610243565b604080518381526020810183905290810186905233907f1dc8bb69df2b8e91fbdcbfcf93d951b3f0000f085a95fe3f7946d6161439245d9060600160405180910390a29094909350915050565b600080821161055c5760405162461bcd60e51b81526020600482015260156024820152744445583a206d7573742073656c6c20746f6b656e7360581b6044820152606401610243565b600080546040516370a0823160e01b81523060048201526001600160a01b03909116906370a0823190602401602060405180830381865afa1580156105a5573d6000803e3d6000fd5b505050506040513d601f19601f820116820180604052508101906105c99190610d08565b90504760006105d98584846101f2565b6000546040516323b872dd60e01b8152336004820152306024820152604481018890529192506001600160a01b0316906323b872dd906064016020604051808303816000875af1158015610631573d6000803e3d6000fd5b505050506040513d601f19601f820116820180604052508101906106559190610d34565b6106715760405162461bcd60e51b815260040161024390610d56565b604051339082156108fc029083906000818181858888f1935050505015801561069e573d6000803e3d6000fd5b50604080518681526020810183905233917f472303b1e7ca7d00fb77f255c0a8c577f9ca4264c0306aaed3ff18e831523a6d91015b60405180910390a2949350505050565b60008034116107295760405162461bcd60e51b81526020600482015260126024820152710888ab07440daeae6e840e6cadcc8408aa8960731b6044820152606401610243565b60006107353447610d21565b600080546040516370a0823160e01b815230600482015292935090916001600160a01b03909116906370a0823190602401602060405180830381865afa158015610783573d6000803e3d6000fd5b505050506040513d601f19601f820116820180604052508101906107a79190610d08565b905060006107b63484846101f2565b60005460405163a9059cbb60e01b8152336004820152602481018390529192506001600160a01b03169063a9059cbb906044016020604051808303816000875af1158015610808573d6000803e3d6000fd5b505050506040513d601f19601f8201168201806040525081019061082c9190610d34565b61086f5760405162461bcd60e51b81526020600482015260146024820152731111560e881d1c985b9cd9995c8819985a5b195960621b6044820152606401610243565b6040805182815234602082015233917f6d4870e9281c01ea54a4420c8684ac713b77f0c590b40c4b1fbf4c6ba892ccea910160405180910390a29392505050565b60006001546000146109045760405162461bcd60e51b815260206004820152601a60248201527f4445583a20616c726561647920686173206c69717569646974790000000000006044820152606401610243565b6000341180156109145750600082115b6109605760405162461bcd60e51b815260206004820152601860248201527f4445583a20696e76616c696420696e697420706172616d7300000000000000006044820152606401610243565b47600181905533600081815260026020526040808220939093555491516323b872dd60e01b81526004810191909152306024820152604481018490526001600160a01b03909116906323b872dd906064016020604051808303816000875af11580156109d0573d6000803e3d6000fd5b505050506040513d601f19601f820116820180604052508101906109f49190610d34565b610a105760405162461bcd60e51b815260040161024390610d56565b505060015490565b6000803411610a5e5760405162461bcd60e51b81526020600482015260126024820152710888ab07440daeae6e840e6cadcc8408aa8960731b6044820152606401610243565b6000610a6a3447610d21565b600080546040516370a0823160e01b815230600482015292935090916001600160a01b03909116906370a0823190602401602060405180830381865afa158015610ab8573d6000803e3d6000fd5b505050506040513d601f19601f82011682018060405250810190610adc9190610d08565b9050600082610aeb8334610cb6565b610af59190610ce6565b905060008360015434610b089190610cb6565b610b129190610ce6565b33600090815260026020526040812080549293508392909190610b36908490610cd3565b925050819055508060016000828254610b4f9190610cd3565b90915550506000546040516323b872dd60e01b8152336004820152306024820152604481018490526001600160a01b03909116906323b872dd906064016020604051808303816000875af1158015610bab573d6000803e3d6000fd5b505050506040513d601f19601f82011682018060405250810190610bcf9190610d34565b610beb5760405162461bcd60e51b815260040161024390610d56565b604080513481526020810184905290810182905233907f3bca7014f4c0ccc8016338c79f4c00e82068dbadaf4f01ca5449040fdd39f500906060016106d3565b600080600060608486031215610c4057600080fd5b505081359360208301359350604090920135919050565b600060208284031215610c6957600080fd5b5035919050565b600060208284031215610c8257600080fd5b81356001600160a01b0381168114610c9957600080fd5b9392505050565b634e487b7160e01b600052601160045260246000fd5b8082028115828204841417610ccd57610ccd610ca0565b92915050565b80820180821115610ccd57610ccd610ca0565b600082610d0357634e487b7160e01b600052601260045260246000fd5b500490565b600060208284031215610d1a57600080fd5b5051919050565b81810381811115610ccd57610ccd610ca0565b600060208284031215610d4657600080fd5b81518015158114610c9957600080fd5b60208082526018908201527f4445583a207472616e7366657246726f6d206661696c6564000000000000000060408201526060019056fea2646970667358221220a37dad2171c1a8531b98bce56a56dd2818f5d169d000eda1dffacfd2b9d0128e64736f6c63430008140033",
  "devdoc": {
    "kind": "dev",
    "methods": {},
    "version": 1
  },
  "userdoc": {
    "kind": "user",
    "methods": {},
    "version": 1
  },
  "storageLayout": {
    "storage": [
      {
        "astId": 847,
        "contract": "contracts/DEX.sol:DEX",
        "label": "token",
        "offset": 0,
        "slot": "0",
        "type": "t_contract(Balloons)805"
      },
      {
        "astId": 849,
        "contract": "contracts/DEX.sol:DEX",
        "label": "totalLiquidity",
        "offset": 0,
        "slot": "1",
        "type": "t_uint256"
      },
      {
        "astId": 853,
        "contract": "contracts/DEX.sol:DEX",
        "label": "liquidity",
        "offset": 0,
        "slot": "2",
        "type": "t_mapping(t_address,t_uint256)"
      }
    ],
    "types": {
      "t_address": {
        "encoding": "inplace",
        "label": "address",
        "numberOfBytes": "20"
      },
      "t_contract(Balloons)805": {
        "encoding": "inplace",
        "label": "contract Balloons",
        "numberOfBytes": "20"
      },
      "t_mapping(t_address,t_uint256)": {
        "encoding": "mapping",
        "key": "t_address",
        "label": "mapping(address => uint256)",
        "numberOfBytes": "32",
        "value": "t_uint256"
      },
      "t_uint256": {
        "encoding": "inplace",
        "label": "uint256",
        "numberOfBytes": "32"
      }
    }
  }
}